:100000000C9429010C948E0E0C94670E0C94400EE7
:100010000C94190E0C9451010C9451010C94F20D96
:100020000C9451010C9451010C94A10A0C941E0BD8
:100030000C9451010C9451010C9451010C945101F8
:100040000C9451010C9451010C9451010C945101E8
:100050000C9451010C9451010C9451010C94A80D75
:100060000C9451010C94760D0C94500D0C9451018C
:100070000C9451010C9451010C9451010C945101B8
:100080000C9451010C9451010C9451010C945101A8
:100090000C9451010C9451010C9451010C94510198
:1000A0000C9451010C9451010C94510150617261F6
:1000B0006C6C656C200053657269616C2000656E24
:1000C000645F636F6E666967007072696E746572F3
:1000D00020636F6E6669677572656421007365726F
:1000E00069616C5F6275666665720020006E6F5FA5
:1000F00070696E5F70726F675F6F7074696F6E7337
:10010000002000312E302E302E726331004F6E6C85
:10011000696E652076657273696F6E3A2000666C51
:100120006F775F636F6E74726F6C3A2000647472E5
:100130005F6C6F6769633A200073657269616C5F19
:10014000656E61626C65643A20006261756472611B
:1001500074653A200064656C61797072696E7465CB
:10016000723A200000000000240027002A002D0021
:10017000300000000000250028002B002E00310078
:10018000040404040403040502020202040302023C
:10019000020206060606060604040202020404041D
:1001A0000802011040804010204080408008020476
:1001B00001804020100201108010204040200000EB
:1001C000000200090F0000030401000C0000000001
:1001D000000000000000000000000000080B00020A
:1001E00002020000090400000102020000052400D0
:1001F0001001052401010104240206052406000162
:100200000705810310004009040100020A000000F4
:1002100007050202400000070583024000000403B6
:10022000090412010002EF0201404F1B0692000177
:1002300001020301537061726B46756E0053706169
:10024000726B46756E2050726F204D6963726F003D
:10025000B50E11241FBECFEFDAE0DEBFCDBF23E025
:10026000ACE9B1E001C01D92A938B207E1F711E095
:10027000A0E0B1E0E0E7F5E202C005900D92AC39F4
:10028000B107D9F711E0C9E2D1E004C02197FE011E
:100290000E94B010C832D107C9F70E94F20E0C9428
:1002A000B6120C940000FC0180919702882311F192
:1002B0003FB7F89482E08093E9002091F200822F0A
:1002C00090E01816190614F481E090E0882339F0C4
:1002D000289844E6409396024091F10040832223FF
:1002E00039F02091F200211103C02BE62093E800A1
:1002F0003FBF08958FEF9FEF089583E08093E9005B
:100300008091F200882319F08AE38093E800089531
:100310002FB7F89483E08093E9009091E800892F4B
:10032000807295FF04C09091F20080E4891B2FBF7A
:10033000089580918E0281110DC082E080938A021F
:1003400084E080938B0210928D0210928C0281E0E7
:1003500080938E028AE892E008954091760250914F
:100360007702209174023091750242175307B4F45A
:100370009091E8009570E1F39091E80092FD19C02A
:100380008093F100809176029091770201968F73AD
:100390009927892B19F48EEF8093E80080917602DB
:1003A000909177020196909377028093760281E094
:1003B000089580E00895EF92FF920F931F93CF93DB
:1003C000DF93F82E192FE62E042F81E0860F880F79
:1003D0000E94AD0183E00E94AD01CF2DD12FEC0E24
:1003E000FD2EF11CCE15DF05B9F007FF13C0FE018D
:1003F00084910E94AD01182F80E00E94AD018123FD
:1004000021968111EFCFDF91CF911F910F91FF9036
:10041000EF9008958881EDCF81E0F5CFDF92EF92E4
:10042000FF920F931F93CF93DF93D82E8A01EB0196
:100430007B01E40EF51ECE15DF0559F0D7FE12C084
:10044000FE0184910E94AD0121968111F4CF0FEF3E
:100450001FEFC801DF91CF911F910F91FF90EF9097
:10046000DF9008958881EECF0F931F93CF93DF9392
:100470001F92CDB7DEB782E0898342E450E06CED95
:1004800071E080E80E940E020E949901DC01129640
:100490000D911C910115110589F0D801ED91FC9188
:1004A0000280F381E02DBE016F5F7F4FC801099587
:1004B00097FD04C0F80100851185ECCF89810F906C
:1004C000DF91CF911F910F910895615030F02091ED
:1004D000F100FC0120830196F8CF289884E68093F0
:1004E00096020895AF92BF92CF92DF92EF92FF9261
:1004F0000F931F93CF93DF936C017B018B01040F4C
:10050000151FEB015E01AE18BF08C017D10759F0E7
:100510006991D601ED91FC910190F081E02DC60129
:100520000995892B79F7C501DF91CF911F910F9123
:10053000FF90EF90DF90CF90BF90AF900895FC01B7
:10054000538D448D252F30E0842F90E0821B930B38
:10055000541710F0CF96089501970895FC01918DDE
:10056000828D981761F0A28DAE0FBF2FB11D5D96E1
:100570008C91928D9F5F9F73928F90E008958FEF83
:100580009FEF0895FC01918D828D981731F0828D37
:10059000E80FF11D858D90E008958FEF9FEF08958E
:1005A000FC01918D228D892F90E0805C9F4F821BF2
:1005B00091098F739927089588E992E00E94D002EB
:1005C00021E0892B09F420E0822F089580E090E05B
:1005D000892B29F00E94DC0281110C9400000895FF
:1005E000FC01A48DA80FB92FB11DA35ABF4F2C91A8
:1005F000848D90E001968F739927848FA689B7899F
:100600002C93A089B1898C9182748C93938D848D65
:10061000981306C00288F389E02D80818F7D808346
:100620000895EF92FF920F931F93CF93DF93EC0106
:1006300081E0888F9B8D8C8D981319C0E889F9898A
:10064000808185FF14C09FB7F894EE89FF8960838D
:10065000E889F9898081827480839FBF81E090E07E
:10066000DF91CF911F910F91FF90EF900895F62E9B
:100670000B8D10E00F5F1F4F0F731127E02E8C8D35
:100680008E110CC00FB607FCFACFE889F98980817A
:1006900085FFF5CFCE010E94F002F1CFEB8DEC0F7C
:1006A000FD2FF11DE35AFF4FF0829FB7F8940B8F97
:1006B000EA89FB8980818062CFCFCF93DF93EC0101
:1006C000888D8823B9F0AA89BB89E889F9898C913A
:1006D00085FD03C0808186FD0DC00FB607FCF7CFF6
:1006E0008C9185FFF2CF808185FFEDCFCE010E94F6
:1006F000F002E9CFDF91CF910895CF93DF931F925E
:10070000CDB7DEB76983DC01ED91FC910280F38106
:10071000E02D41E050E0BE016F5F7F4F09950F90E3
:10072000DF91CF9108950F931F93CF93DF938C01A7
:10073000D0E0C0E0F801EC0FFD1F6491662341F0AA
:1007400085E393E00E947D03892B11F02196F2CF7F
:10075000CE01DF91CF911F910F9108950C947D01EF
:100760000E94880190E00895CF93DF931F92CDB748
:10077000DEB7FC018485958597FD08C02FEF3FEF1C
:10078000358724870F90DF91CF910895CE01019690
:100790000E945301019719F4898190E0F3CF8FEF04
:1007A0009FEFF0CF0F931F93CF93DF931F92CDB79F
:1007B000DEB78C01FC018485958597FF0BC0CE01C7
:1007C00001960E945301019771F4898190E0F8012C
:1007D00095878487F801848595850F90DF91CF9167
:1007E0001F910F9108958FEF9FEFF1CFFC0184854A
:1007F000958597FD0BC09FB7F89482E08093E90040
:100800008091F2009FBF90E0019608959FB7F89401
:1008100082E08093E9008091F2009FBF90E008950C
:10082000282F30E0F901E254FE4F9491F901E1568E
:10083000FE4F849120583E4FF9012491222309F460
:1008400030C09923E9F091509F30D0F4E92FF0E0C7
:10085000E45DFB4F0C94B0105A045E043B04520458
:100860005604400440044004610467046B046F04B0
:10087000750440047904909180009F7790938000E4
:10088000E22FF0E0EE0FFF1FEE58FE4FA591B4915E
:100890009FB7F894EC91611132C080958E238C93B0
:1008A0009FBF0895909180009F7DE8CF9091800038
:1008B000977FE4CF94B59F7794BDE2CF94B59F7DA9
:1008C000FBCF909190009F7790939000D9CF90911B
:1008D00090009F7DF9CF90919000977FF5CF9091F8
:1008E000C0009F779093C000CBCF9091C0009F7DB8
:1008F000F9CF9091C200977F9093C200C1CF8E2B09
:10090000CECFCF93DF9390E0FC01E156FE4F2491D0
:1009100080589E4FFC0184918823D1F090E0880F8D
:10092000991FFC01EC59FE4FA591B491FC01EE58C2
:10093000FE4FC591D491623071F49FB7F8943C9109
:10094000822F809583238C93E8812E2B28839FBF51
:10095000DF91CF9108958FB7F894EC912E2B2C93C3
:100960008FBFF6CF3FB7F8948091700290917102DB
:10097000A0917202B091730226B5A89B05C02F3FCB
:1009800019F00196A11DB11D3FBFBA2FA92F982FB5
:100990008827BC01CD01620F711D811D911D42E0B0
:1009A000660F771F881F991F4A95D1F708958F9278
:1009B0009F92AF92BF92CF92DF92EF92FF924B0144
:1009C0005C010E94B2046B017C010E94B2046C19AC
:1009D0007D098E099F09683E734081059105A8F342
:1009E00021E0821A9108A108B10888EEC80E83E0C0
:1009F000D81EE11CF11C81149104A104B10429F753
:100A0000FF90EF90DF90CF90BF90AF909F908F902E
:100A100008958F929F92AF92BF92CF92DF92EF9202
:100A2000FF920F931F93CF93DF936C017B018A0199
:100A300080911B01882309F45CC080919702882370
:100A400009F457C080917A0280FF05C08091E000D0
:100A500082608093E000E801B12C8AEFA82E93E039
:100A6000892E2AE3922E209711F4BB20D9F10E94FF
:100A7000880181110AC0AA94AA20D9F161E070E02E
:100A800080E090E00E94D704EECF8C171D0611F095
:100A90000CF08C2F9FB7F8948092E9002091E80029
:100AA00025FD02C09FBFDFCF282F30E0C21BD30B34
:100AB000F701815020F041914093F100FACFE20E0E
:100AC000F31EBB2021F09092E800B12CEBCF809177
:100AD000E80085FDE7CF9092E800BB24B39420970F
:100AE00009F3F3CF5D9884E680937902101611061E
:100AF0003CF081E090E0F6019383828310E000E017
:100B0000C801DF91CF911F910F91FF90EF90DF907F
:100B1000CF90BF90AF909F908F900895089580914F
:100B20006E028F5F80936E0260E0843129F0803521
:100B300031F410926E0261E081E10C94100408958A
:100B40008091050181FF05C061E188E992E00E9482
:100B5000110380910001882311F0769A0895769808
:100B6000089580910001882311F076980895769A6F
:100B70000895AF92BF92CF92DF92EF92FF921F93B0
:100B8000CF93DF9388E992E00E94D0027C018091AC
:100B9000860290918702A0918802B0918902E114A7
:100BA000F104E9F4409168025091690260916A028F
:100BB00070916B02841B950BA60BB70B853F914080
:100BC000A105B10510F010926702DF91CF911F913E
:100BD000FF90EF90DF90CF90BF90AF900895E4E149
:100BE000EE16F10408F0A3C010916702112309F476
:100BF000A0C0409168025091690260916A027091B0
:100C00006B025C016D01A41AB50AC60AD70AB601C7
:100C1000A501443F514061057105B8F28093680217
:100C200090936902A0936A02B0936B02C09165022F
:100C3000D0916602C356DE4F6E012FB7F8948091B3
:100C40007C0290917D02A0917E02B0917F022FBF25
:100C50008093A0029093A102A093A202B093A3025A
:100C600088E992E00E94AE0297FF65C02FB7F89422
:100C700080917C0290917D02A0917E02B0917F02D2
:100C80002FBF4091A0025091A1026091A2027091E9
:100C9000A302841B950BA60BB70B40919C025091AD
:100CA0009D0260919E0270919F0284179507A6078E
:100CB000B707B0F2C0916502D0916602CE0DDF1D7C
:100CC000D0936602C093650281E080936702C938C1
:100CD000D10510F41123D9F01091050110FD0E94E7
:100CE000B10511FF05C063E188E992E00E9411039C
:100CF000AE016DE971E085E393E00E9409050E9471
:100D00007D0110926602109265020E94A0058091FA
:100D10006E028D5E80936E02DF91CF911F91FF90E6
:100D2000EF90DF90CF90BF90AF900C948F0510E0C4
:100D300075CF11E073CFF60181936F01CF018C1B4A
:100D40009D0B8E159F0508F478CFB4CF8F929F929C
:100D5000AF92BF920F931F93CF93DF93CDB7DEB7C0
:100D6000A1970FB6F894DEBF0FBECDBF19A24230D7
:100D700008F44AE08E010F5D1F4F842E912CB12C98
:100D8000A12CA50194010E948E10E62FB901CA0181
:100D9000EA3044F5E05DD801EE938D01232B242B3E
:100DA000252B79F790E080E0109769F0FD01019024
:100DB0000020E9F73197AF014A1B5B0BBD0185E3CA
:100DC00093E00E940905A1960FB6F894DEBF0FBE0E
:100DD000CDBFDF91CF911F910F91BF90AF909F90AA
:100DE0008F900895E95CD7CF42E050E06DE471E068
:100DF00085E393E00C940905CF93DF930E9493035E
:100E0000EC010E94F4068C0F9D1FDF91CF91089595
:100E1000CF93DF93682F70E090E080E04AE00E947B
:100E2000A606EC010E94F4068C0F9D1FDF91CF9166
:100E300008950F931F93CF93DF93EC0188819981DD
:100E4000009759F02A813B812617370730F081E05F
:100E5000DF91CF911F910F9108958B016F5F7F4FAD
:100E60000E94DB11009759F0998388831B830A83C2
:100E70002C813D81232B59F7FC011082E8CF80E0C3
:100E8000E7CF469A6FB183B143B133B123B158E094
:100E9000859FC0011124807194E0499FA001112415
:100EA0004072842B62956F70682B40E1349FC001C3
:100EB00011248074682B822F880F8078682B85E33B
:100EC00093E00E947D030E948F0580916C029091B7
:100ED0006D028230910538F0880F991F880F991F95
:100EE00005970197F1F75C9858E15A95F1F7469804
:100EF0005C9A08958F929F92AF92BF92EF92FF9269
:100F00000F931F93CF93DF93CDB7DEB728970FB61C
:100F1000F894DEBF0FBECDBFEDB6FEB661E081E155
:100F20000E94810481E08093000110929C01109244
:100F300066021092650261E087E00E9481040E94CF
:100F4000B10562E083E00E94810461E086E00E94D6
:100F5000810461E084E00E94810461E085E00E94F8
:100F6000810462E085E10E94810462E084E10E94E4
:100F7000810462E083E10E94810462E082E10E94D8
:100F8000810462E08FE00E94810462E08EE00E94B2
:100F9000810462E080E10E94810462E08AE00E94B4
:100FA000810461E085E00E94100461E084E00E9419
:100FB00010048FEF9FEF90934203809341031091B1
:100FC0001B016AE070E080E090E00E94D7041123EA
:100FD000B1F361E081E10E9410041A8219821C823F
:100FE0001B821E821D8270E060E0CE0101960E948D
:100FF000190729813A8181113CC02115310519F069
:10100000C9010E9452111A8219821E821D821C82FD
:101010001B8264E170E0CE0101960E94190785E30E
:1010200093E00E94F603892BD1F385E393E00E94BD
:10103000B4038F3F31F50E947A0789819A81009726
:1010400011F00E9452110FB6F894FEBE0FBEEDBE15
:1010500028960FB6F894DEBF0FBECDBFDF91CF91BB
:101060001F910F91FF90EF90BF90AF909F908F9046
:1010700008951E821D826FE471E0C9010E94A112D1
:10108000C8CF8A30E1F08F8318860D811E810F5FF3
:101090001F4FB801CE0101960E941907882309F459
:1010A000BECF29813A818D819E81BE01695F7F4FCC
:1010B000820F931F0E94A1121E830D83B0CF09815E
:1010C0001A814DE050E060E571E0C8010E94A8126D
:1010D000892B09F059C08DB69EB68D819E81AC01D9
:1010E0004D5051099C012C5031096DB77EB7621BE0
:1010F000730B0FB6F8947EBF0FBE6DBFEDB7FEB792
:1011000031965F01EDB7FEB7118232960E9797FDCB
:1011100003C011920197FBCFB801635F7F4FC501F8
:101120000E949812C5010E94F50F90936D02809362
:101130006C0285E591E00E94930360916C027091CE
:101140006D0290E080E04AE00E94A6060E94F4064C
:101150000FB6F8949EBE0FBE8DBE70E060E0CE016B
:1011600001960E94190729813A818111CDC121156B
:10117000310519F0C9010E9452111A8219821E828A
:101180001D821C821B824BCF49E050E06EE571E06E
:10119000C8010E94A812892B09F03FC08DB69EB6E7
:1011A0008D819E81AC01495051099C012850310923
:1011B0006DB77EB7621B730B0FB6F8947EBF0FBE80
:1011C0006DBFEDB7FEB731965F01EDB7FEB7118287
:1011D00032960A9797FD03C011920197FBCFB80191
:1011E000675F7F4FC5010E949812C5010E941310CE
:1011F00060930101709302018093030190930401B5
:101200008AE491E00E9493036091010170910201D0
:10121000809103019091040196CF4FE050E068E681
:1012200071E0C8010E94A812892BA9F58DB69EB65F
:101230008D819E81AC014F5051099C012E50310986
:101240006DB77EB7621B730B0FB6F8947EBF0FBEEF
:101250006DBFEDB7FEB731965F01EDB7FEB71182F6
:101260003296409797FD03C011920197FBCFB801CA
:10127000615F7F4FC5010E949812C5010E94F50F62
:1012800080939C0189E391E00E94930380919C01EB
:101290000E9408075DCF4AE050E068E771E0C801AE
:1012A0000E94A812892B99F58DB69EB68D819E81DC
:1012B000AC014A5051099C01295031096DB77EB7E4
:1012C000621B730B0FB6F8947EBF0FBE6DBFEDB7F8
:1012D000FEB731965F01EDB7FEB7118232960B97DC
:1012E00097FD03C011920197FBCFB801665F7F4F56
:1012F000C5010E949812C5010E94F50F809300015C
:101300008DE291E00E94930380910001C1CF4DE0F6
:1013100050E063E871E0C8010E94A812892B99F59A
:101320008DB69EB68D819E81AC014D5051099C01B8
:101330002C5031096DB77EB7621B730B0FB6F89452
:101340007EBF0FBE6DBFEDB7FEB731965F01EDB743
:10135000FEB7118232960E9797FD03C01192019746
:10136000FBCFB801635F7F4FC5010E949812C50192
:101370000E94F50F809305018EE191E00E94930396
:101380008091050185CF4AE050E061E971E0C80134
:101390000E94A812892B09F0E0CE8DE091E00E9416
:1013A000930383E091E00E94930381E091E00E9427
:1013B00093038DEE90E00E94FC068BEE90E00E947D
:1013C00093038DED90E00E94FC0680919C018111B9
:1013D00098C08CEA90E00E94930389EC90E00E9410
:1013E000FC068EEB90E00E94FC0680919C0129EBAC
:1013F00035E0811102C030E020E030938502209377
:101400008402882309F488C0809001019090020131
:10141000A0900301B0900401E091A802F091A9020C
:1014200082E080838114F1EE9F06A104B104A1F053
:1014300060E079E08DE390E0A50194010E948E10B8
:1014400021503109410951095695479537952795FE
:10145000211560E13607A8F0E091A802F091A902F9
:10146000108260E874E88EE190E0A50194010E948A
:101470008E102150310941095109569547953795EC
:101480002795E091A402F091A5023083E091A60295
:10149000F091A70220831092B002E091AC02F0918B
:1014A000AD0286E08083E091AA02F091AB028081D8
:1014B00080618083E091AA02F091AB028081886014
:1014C0008083E091AA02F091AB02808180688083E2
:1014D000E091AA02F091AB0280818F7D80837FEF43
:1014E00081EE94E0715080409040E1F700C0000030
:1014F00088E992E00E94AE0297FFFACF0E94A00511
:101500009CCD86EB90E067CF1E821D826FE471E078
:10151000C9010E94A11283CDF89481E497E09093D1
:10152000070180930601809169008C7F826080931F
:101530006900E89AE09A789460E085E00E941004DF
:101540007CCD1F920F920FB60F9211242F933F93D1
:101550004F935F936F937F938F939F93AF93BF93BB
:10156000CF93EF93FF93C091E1008091E100837FDF
:101570008093E100C3FF0FC01092E90081E08093E7
:10158000EB001092EC0082E38093ED001092970242
:1015900088E08093F000C2FF1AC00E947D01809114
:1015A0007902882341F080917902815080937902F9
:1015B000811101C05D9A80919602882341F080914B
:1015C0009602815080939602811101C0289AC4FF2F
:1015D00023C08091E2008E7E81608093E200809142
:1015E000E1008F7E8093E10080917A028E7E80619F
:1015F00080937A02FF91EF91CF91BF91AF919F912C
:101600008F917F916F915F914F913F912F910F90AB
:101610000FBE0F901F901895C0FFECCF8091E20095
:101620008E7E80618093E2008091E1008E7E8093C7
:10163000E10080917A028E7E8160DACF1F920F9254
:101640000FB60F921124CF92DF92EF92FF920F9379
:101650001F932F933F934F935F936F937F938F933A
:101660009F93AF93BF93EF93FF93CF93DF93CDB748
:10167000DEB76C97DEBFCDBF1092E9008091E80025
:1016800083FF25C068E0CE0145960E94650282EF87
:101690008093E8008D8987FF39C09091E80090FF22
:1016A000FCCF982F907609F034C19E894F89588DD0
:1016B0002F89F88C911131C0803861F580917B02BF
:1016C0008093F1001092F1008EEF8093E8006C9609
:1016D0000FB6F894DEBF0FBECDBFDF91CF91FF9163
:1016E000EF91BF91AF919F918F917F916F915F919A
:1016F0004F913F912F911F910F91FF90EF90DF90AD
:10170000CF900F900FBE0F901F9018959EEF909363
:10171000E800C7CF1092F100D5CF913059F4811174
:10172000D3CF4130510581F680917B028D7F80932C
:101730007B02CACF933049F48111C6CF41305105A5
:1017400019F680917B028260F2CF953041F480914E
:10175000E80080FFFCCF20682093E300B5CF9630EF
:1017600009F0A9C00B8D1C8D22E01092E9001092A7
:10177000770210927602F2122EC010927502109229
:1017800074020E9434021F8299E09983FA8291E0E8
:101790009E8390EA98879AEF9987209176023091FC
:1017A0007702275F3F4F3C832B838D831092E900A4
:1017B00010927702109276021093750200937402D1
:1017C00049E050E0BE016F5F7F4F80E00E940E0253
:1017D0000E94340279CF10937502009374020E9424
:1017E0009901DC0112960D911C910115110509F466
:1017F00051C1D801ED91FC910480F581E02DBE012D
:101800006B5E7F4FC8010995009709F03EC1F80152
:1018100000851185EACFF3E0FF120EC08F8988237F
:1018200009F440C0823061F440E862E18DE392E067
:101830000E94DB01811148CF81E28093EB0047CF0A
:10184000813029F440E868E084E392E0F1CF83300E
:1018500099F70E949901DC011296ED90FC908E019F
:101860000F5F1F4F6801E114F10479F0D701ED918A
:10187000FC910680F781E02DB801C7010995080F9A
:10188000111DF701E084F184EECFD8011C92F6011E
:1018900001900020E9F73197BF016C197D0940E004
:1018A000C601C6CF6EE172E0FB01449150E080E8D2
:1018B0000E940E0209CF973009F4BECF983021F470
:1018C00081E08093F10000CF993009F0FDCE837064
:1018D00009F0B2CFE3E2F1E081E031E096E321915B
:1018E000222371F08093E9003093EB00DF01119720
:1018F0002C912093EC009093ED008F5F873079F767
:101900008EE78093EA001092EA008F898093970215
:10191000DBCE8B8D9C8D1092E90010927702109295
:1019200076029093750280937402898D811192C022
:101930008E899D89913A49F4813209F07DCF47E043
:1019400050E064E171E080E0B3CF913209F074CFF0
:10195000833269F48F89988DB0E0A0E08093100104
:1019600090931101A0931201B0931301ADCE803278
:1019700069F48091E80082FFFCCF67E084E191E0A8
:101980000E9465028BEF8093E8009ECE823209F0C0
:101990009BCE8F8980931B01EEEFFFE78591949199
:1019A0008B3F9C4D51F1E0E0F8E080911401909163
:1019B0001501A0911601B0911701803B9440A1053B
:1019C000B105F1F480911B0180FD1AC0EE3F8AE061
:1019D000F80789F587E797E7918380838091600016
:1019E0008093780288E19BE00FB6F894A8958093E5
:1019F00060000FBE9093600067CEEEEFFAE0D5CFA7
:101A0000808191818737974709F05ECEA8958091B4
:101A1000600088618093600080917802809360000C
:101A2000EE3F2AE0F20789F08091FE0A9091FF0ACA
:101A30009183808349CE808191818737980751F2C5
:101A40009093FF0A8093FE0AC5CF1092FF0A10926E
:101A5000FE0A3ACE0E949901DC0112960D911C916A
:101A60000115110509F4E8CED801ED91FC91019022
:101A7000F081E02DBE016B5E7F4FC8010995811199
:101A800023CEF80100851185EBCF181619060CF44A
:101A90001BCED2CEF1E0FF12BECE62E272E004CFE6
:101AA0001F920F920FB60F9211242F933F934F93D3
:101AB0005F936F937F938F939F93AF93BF93EF93B6
:101AC000FF9388E992E00E94F002FF91EF91BF91AD
:101AD000AF919F918F917F916F915F914F913F91C6
:101AE0002F910F900FBE0F901F9018951F920F927D
:101AF0000FB60F9211242F938F939F93EF93FF9321
:101B0000E091A802F091A9028081E091AE02F091EB
:101B1000AF0282FD1BC090818091B1028F5F8F73F5
:101B20002091B202821741F0E091B102F0E0E85654
:101B3000FD4F958F8093B102FF91EF919F918F910F
:101B40002F910F900FBE0F901F9018958081F4CFAA
:101B50001F920F920FB60F9211242F933F938F93E2
:101B60009F93AF93BF9380917C0290917D02A0914F
:101B70007E02B0917F0230916F0223E0230F2D3758
:101B800058F50196A11DB11D20936F0280937C0230
:101B900090937D02A0937E02B0937F0280917002A9
:101BA00090917102A0917202B09173020196A11DF1
:101BB000B11D8093700290937102A0937202B09352
:101BC0007302BF91AF919F918F913F912F910F9091
:101BD0000FBE0F901F90189526E8230F0296A11DA7
:101BE000B11DD2CF1F920F920FB60F9211242F93D7
:101BF0003F934F935F936F937F938F939F93AF9395
:101C0000BF93EF93FF93E0910E01F0910F010995BF
:101C1000FF91EF91BF91AF919F918F917F916F91C4
:101C20005F914F913F912F910F900FBE0F901F909A
:101C300018951F920F920FB60F9211242F933F9376
:101C40004F935F936F937F938F939F93AF93BF93C4
:101C5000EF93FF93E0910C01F0910D010995FF9135
:101C6000EF91BF91AF919F918F917F916F915F9114
:101C70004F913F912F910F900FBE0F901F9018958D
:101C80001F920F920FB60F9211242F933F934F93F1
:101C90005F936F937F938F939F93AF93BF93EF93D4
:101CA000FF93E0910A01F0910B010995FF91EF91EB
:101CB000BF91AF919F918F917F916F915F914F9164
:101CC0003F912F910F900FBE0F901F9018951F926C
:101CD0000F920FB60F9211242F933F934F935F9360
:101CE0006F937F938F939F93AF93BF93EF93FF93E4
:101CF000E0910801F09109010995FF91EF91BF91E1
:101D0000AF919F918F917F916F915F914F913F9193
:101D10002F910F900FBE0F901F9018951F920F924A
:101D20000FB60F9211242F933F934F935F936F93AE
:101D30007F938F939F93AF93BF93EF93FF93E09124
:101D40000601F09107010995FF91EF91BF91AF91C5
:101D50009F918F917F916F915F914F913F912F91C3
:101D60000F900FBE0F901F901895E8E9F2E01382D4
:101D7000128288EE93E0A0E0B0E084839583A6838E
:101D8000B7832DE231E0318320832DEC30E03587BD
:101D900024872CEC30E03787268728EC30E0318B25
:101DA000208B29EC30E0338B228B2AEC30E0358B12
:101DB000248B2EEC30E0378B268B118E128E138EF7
:101DC000148EE5E3F3E01382128284839583A68365
:101DD000B7838FE391E0918380838FEF9FEF9587A7
:101DE00084870895789484B5826084BD84B58160C9
:101DF00084BD85B5826085BD85B5816085BD8091D6
:101E00006E00816080936E0010928100809181004D
:101E10008260809381008091810081608093810045
:101E20008091800081608093800080919100826029
:101E300080939100809191008160809391008091C6
:101E400090008160809390008091C10084608093B5
:101E5000C1008091C10082608093C1008091C10067
:101E600081608093C1008091C30081608093C30032
:101E70008091C00082608093C0008091C200816028
:101E80008093C20080917A00846080937A00809170
:101E90007A00826080937A0080917A0081608093DA
:101EA0007A0080917A00806880937A00109297027D
:101EB00010927B0210927A028091D7008160809309
:101EC000D70080EA8093D80089B5806189BD89B543
:101ED000826089BD09B400FEFDCF61E070E080E062
:101EE00090E00E94D7048091D8008F7C806180931D
:101EF000D8008091E000807F8093E0008091E10035
:101F00008E7E8093E1008DE08093E200559A209AC6
:101F10000E947A0711E0C0E0D0E02FB7F8948091DA
:101F20007C0290917D02A0917E02B0917F022FBF32
:101F30008093860290938702A0938802B0938902CF
:101F4000E0918402F0918502309709F00995809123
:101F5000860290918702A0918802B09189024091F7
:101F600080025091810260918202709183026C0123
:101F70007D01C41AD50AE60AF70AB701A601483E50
:101F8000534061057105B8F08093800290938102FF
:101F9000A0938202B093830285B1812785B9009115
:101FA0001B016AE070E080E090E00E94D70401111C
:101FB0000DC00E947A07209709F4AFCF0E94DC027F
:101FC000882309F4AACF0E940000A7CF85E393E0FD
:101FD0000E94F6031816190674F785E393E00E9431
:101FE000B4038F3F910539F7E4CFFC018827992787
:101FF000E89421912032E9F3293010F02E30C8F313
:102000002B3241F02D3239F4689404C00E944F10F5
:10201000820F911D219120532A30C0F31EF4909518
:1020200081959F4F08951F93FC0199278827BC0134
:10203000E89411911032E9F3193010F01E30C8F312
:102040001B3251F01D3249F4689406C00E943A10C8
:10205000610F711D811D911D119110531A30B0F344
:102060003EF490958095709561957F4F8F4F9F4F6F
:102070001F910895592F482F372F262F660F771F4E
:10208000881F991F660F771F881F991F620F731F84
:10209000841F951F660F771F881F991F08957AE088
:1020A000979F902D879F802D910D112408952F9239
:1020B0003F924F925F926F927F928F929F92AF92D8
:1020C000BF92CF92DF92EF92FF920F931F93CF9325
:1020D000DF93CDB7DEB7CA1BDB0B0FB6F894DEBFBC
:1020E0000FBECDBF09942A88398848885F846E84E2
:1020F0007D848C849B84AA84B984C884DF80EE802C
:10210000FD800C811B81AA81B981CE0FD11D0FB634
:10211000F894DEBF0FBECDBFED010895A1E21A2EE7
:10212000AA1BBB1BFD010DC0AA1FBB1FEE1FFF1F7B
:10213000A217B307E407F50720F0A21BB30BE40BCB
:10214000F50B661F771F881F991F1A9469F7609512
:102150007095809590959B01AC01BD01CF010895CC
:10216000EE0FFF1F0590F491E02D09940F931F933C
:10217000CF93DF938230910510F482E090E0E091FC
:102180008703F091880330E020E0B0E0A0E03097D2
:1021900099F42115310509F44AC0281B390B243064
:1021A0003105D8F58A819B816115710589F1FB01A3
:1021B00093838283FE0111C040815181028113818A
:1021C00048175907E0F04817590799F4109761F03C
:1021D00012960C93129713961C933296CF01DF91AF
:1021E000CF911F910F910895009387031093880357
:1021F000F4CF2115310551F04217530738F0A901EA
:10220000DB019A01BD01DF01F801C1CFEF01F9CF78
:102210009093880380938703CDCFFE01E20FF31FD5
:10222000819391932250310939832883D7CF20910C
:10223000850330918603232B41F420911E013091B8
:102240001F01309386032093850320911C01309158
:102250001D012115310541F42DB73EB740912001F4
:1022600050912101241B350BE0918503F0918603E9
:10227000E217F307A0F42E1B3F0B2817390778F05D
:10228000AC014E5F5F4F2417350748F04E0F5F1FBC
:102290005093860340938503819391939FCFF0E001
:1022A000E0E09CCFCF93DF930097E9F0FC013297F9
:1022B00013821282A0918703B0918803ED0130E070
:1022C00020E01097A1F420813181820F931F20918B
:1022D0008503309186032817390709F061C0F09310
:1022E0008603E0938503DF91CF910895EA01CE172D
:1022F000DF07E8F54A815B819E0141155105B1F781
:10230000E901FB83EA8349915991C40FD51FEC176A
:10231000FD0761F4808191810296840F951FE90188
:1023200099838883828193819B838A83F0E0E0E0B4
:1023300012968D919C9113970097B9F52D913C9130
:102340001197CD010296820F931F20918503309142
:1023500086032817390739F6309751F5109288030C
:1023600010928703B0938603A0938503BCCFD383D9
:10237000C28340815181840F951FC817D90761F42A
:102380004E5F5F4F88819981480F591F5183408369
:102390008A819B81938382832115310509F0B0CF17
:1023A000F0938803E09387039ECFFD01DC01C0CF4B
:1023B00013821282D7CFB0E0A0E0E1EEF1E10C94FD
:1023C00059108C01009751F4CB010E94B6108C017A
:1023D000C801CDB7DEB7E0E10C947510FC01E60F43
:1023E000F71F9C0122503109E217F30708F49DC042
:1023F000D901CD91DC911197C617D70798F0C53058
:10240000D10530F3CE0104978617970708F3C61B52
:10241000D70B2297C193D1936D937C93CF010E94E8
:102420005211D6CF5B01AC1ABD0A4C018C0E9D1E19
:10243000A0918703B0918803512C412CF12CE12C01
:10244000109731F580918503909186038815990541
:1024500009F05CC04616570608F058C080911C0170
:1024600090911D01009741F48DB79EB740912001D6
:1024700050912101841B950BE817F90708F055C00E
:10248000F0938603E0938503F90171836083A0CF05
:102490008D919C91119712966C90129713967C9047
:1024A0001397A815B90559F56C0142E0C40ED11C6B
:1024B000CA14DB0420F1AC014A195B09DA01129657
:1024C000159780F06282738251834083D9016D93A6
:1024D0007C93E114F10471F0D7011396FC93EE9311
:1024E000129776CF22968C0F9D1FF90191838083DE
:1024F000F301EFCFF0938803E093870369CF481689
:10250000590608F42C017D01D3019ACFCB010E941A
:10251000B6107C01009749F0AE01B8010E949812F4
:10252000C8010E945211870153CF10E000E050CF44
:10253000FB01DC0102C001900D9241505040D8F7E0
:102540000895FB01DC0101900D920020E1F7089550
:10255000FB01DC014150504030F08D910190801919
:1025600019F40020B9F7881B990B0895F894FFCF50
:1025700001004B0000018E058E058E058E058E052F
:10258000FFFFFFFF00E100000000000000008903E2
:10259000800000C180810000000000000011037273
:1025A000029F025D03D002AE02C202000000007D65
:1025B000030905B003AE03F603B403D2030D0A000A
:1025C00064656C61797072696E7465723D006261F8
:1025D0007564726174653D0073657269616C5F65F5
:1025E0006E61626C65643D006474725F6C6F6769F4
:1025F000633D00666C6F775F636F6E74726F6C3DE6
:0C26000000656E645F636F6E66696700C2
:00000001FF
