:100000000C9440020C9468020C9468020C946802F0
:100010000C9468020C9468020C9468020C946802B8
:100020000C9468020C9468020C9463060C94D2063B
:100030000C9468020C9468020C9468020C94680298
:100040000C9468020C9468020C9468020C94680288
:100050000C9468020C9468020C9468020C940409D5
:100060000C9468020C9468020C9468020C94680268
:100070000C9468020C9468020C9468020C94680258
:100080000C9468020C9468020C9468020C94680248
:100090000C9468020C9468020C9468020C94680238
:1000A0000C9468020C9468020C9468025072657398
:1000B0007320656E74657220746F20636F6E74694F
:1000C0006E7565205B456E7465725D000000000012
:1000D000240027002A002D00300000000000250029
:1000E00028002B002E003100000000002300260015
:1000F00029002C002F000404040404030405020258
:1001000002020403020202020606060606060404B0
:100110000202020404040802011040804010204042
:1001200080408008020401804020100201108010ED
:10013000204040200000000200090F0000030401DD
:10014000000C0000000000000000000000000000A3
:100150000000080B00020202000009040000010276
:1001600002000005240010010524010101042402FD
:10017000060524060001070581031000400904015B
:1001800000020A0000000705020240000007058384
:10019000024000000403090412010002EF020140C2
:1001A0004F1B0692000101020301537061726B46FE
:1001B000756E00537061726B46756E2050726F20C1
:1001C0004D6963726F00202D205465737420666939
:1001D000726D7761726500312E302E302E72633170
:1001E000004F6E6C696E652076657273696F6E3A4A
:1001F0002000526573746172742E2E2E0054657344
:10020000747320656E642120546F74616C20617575
:10021000746F206572726F72733A2000466F756E4C
:1002200064206572726F72733A20002B204552521F
:100230004F523A2062726964676520646574656331
:1002400074656420003D3D3D3D3D3D3D3D3D3D3DB2
:100250003D3D3D3D3D3D3D3D3D3D3D3D3D3D3D3DCE
:100260003D3D3D3D3D3D3D3D3D3D3D3D3D3D3D3DBE
:100270003D3D004175746F746573742063726F73D4
:10028000732062726964676573206F6E20504152FB
:10029000414C4C454C20494E5055542070696E736A
:1002A0000052657472792E2E2E004552524F523AEA
:1002B0002070696E206469646E2774206368616EC3
:1002C0006765642121210064657465637465642039
:1002D00076616C75653A200057616974696E6720B4
:1002E0006D616E75616C2070696E206368616E6708
:1002F000652E2E2E003D3D3D3D3D3D3D3D3D3D3D70
:100300003D3D3D3D005465737420494E5055542089
:1003100070696E73004E6F74653A2045787065633E
:100320007420444541535345525445442061742040
:100330002D3956206F6E2052532D323332206A757C
:100340006D706572002B2045787065637420484994
:100350004748206F6E3A20002D2D2D004E6F74659A
:100360003A20457870656374204153534552544593
:1003700044206174203956206F6E2052532D323341
:1003800032206A756D706572004E6F74653A205246
:10039000532D323332205245562F44545220736825
:1003A0006F756C64206265206C696E6B6564004ECD
:1003B0006F74653A2069732070756C6C65642D7577
:1003C0007020696E206120686967682073746174A9
:1003D00065206F6E2064656661756C7420626F6164
:1003E000726473002B20457870656374204C4F57FE
:1003F000206F6E3A20003D3D3D3D3D3D3D3D3D3D44
:100400003D3D3D3D3D3D0054657374204F55545076
:1004100055542070696E73002B20457870656374A5
:100420002048494748206F6E3A20003D3D3D3D3D04
:100430003D3D3D3D3D3D3D3D3D3D3D3D3D3D3D3DEC
:100440003D3D3D3D3D3D3D3D3D3D3D3D3D3D3D3DDC
:100450003D3D3D00504C454153452054657374204B
:100460004E4F5420636F6D6D616E646564207075CE
:100470006C6C65642D75702070696E730000110CD2
:1004800011241FBECFEFDAE0DEBFCDBF12E0A0E047
:10049000B1E0EAE6FEE102C005900D92AA3DB10787
:1004A000D9F723E0AAEDB2E001C01D92A738B20748
:1004B000E1F712E0C0E4D2E004C02197FE010E94FF
:1004C000480CCF33D107C9F70E944E090C94330F63
:1004D0000C940000FC0180913603882311F13FB792
:1004E000F89482E08093E9002091F200822F90E05E
:1004F0001816190614F481E090E0882339F0289842
:1005000044E6409335034091F1004083222339F0C3
:100510002091F200211103C02BE62093E8003FBF99
:1005200008958FEF9FEF08952FB7F89483E080939D
:10053000E9009091E800892F807295FF04C09091A6
:10054000F20080E4891B2FBF089580912D03811153
:100550000DC082E08093290384E080932A031092E7
:100560002C0310922B0381E080932D0389E293E00A
:1005700008954091E5025091E6022091E302309106
:10058000E40242175307B4F49091E8009570E1F348
:100590009091E80092FD19C08093F1008091E502EE
:1005A0009091E60201968F739927892B19F48EEFAB
:1005B0008093E8008091E5029091E6020196909385
:1005C000E6028093E50281E0089580E00895EF92CD
:1005D000FF920F931F93CF93DF93F82E192FE62EE0
:1005E000042F81E0860F880F0E94B90283E00E94E9
:1005F000B902CF2DD12FEC0EFD2EF11CCE15DF054B
:10060000B9F007FF13C0FE0184910E94B902182FB0
:1006100080E00E94B902812321968111EFCFDF9102
:10062000CF911F910F91FF90EF9008958881EDCFAA
:1006300081E0F5CFDF92EF92FF920F931F93CF935C
:10064000DF93D82E8A01EB017B01E40EF51ECE1557
:10065000DF0559F0D7FE12C0FE0184910E94B90255
:1006600021968111F4CF0FEF1FEFC801DF91CF91D9
:100670001F910F91FF90EF90DF9008958881EECF4A
:100680000F931F93CF93DF931F92CDB7DEB782E016
:10069000898342E450E062E571E080E80E941A0339
:1006A0000E94A502DC0112960D911C910115110505
:1006B00089F0D801ED91FC910280F381E02DBE011B
:1006C0006F5F7F4FC801099597FD04C0F801008551
:1006D0001185ECCF89810F90DF91CF911F910F9100
:1006E0000895615030F02091F100FC0120830196C3
:1006F000F8CF289884E6809335030895CF93DF934D
:100700001F92CDB7DEB76983DC01ED91FC910280C9
:10071000F381E02D41E050E0BE016F5F7F4F09950E
:100720000F90DF91CF9108950F931F93CF93DF9395
:100730008C01D0E0C0E0F801EC0FFD1F649166234E
:1007400041F087E393E00E947E03892B11F021960C
:10075000F2CFCE01DF91CF911F910F91089583E0E9
:100760008093E9008091F200882319F08AE3809356
:10077000E80008950E94940290E00895CF93DF93DB
:100780001F92CDB7DEB7FC018485958597FD08C023
:100790002FEF3FEF358724870F90DF91CF9108959A
:1007A000CE0101960E946A02019719F4898190E0B6
:1007B000F3CF8FEF9FEFF0CF0F931F93CF93DF9384
:1007C0001F92CDB7DEB78C01FC018485958597FF1C
:1007D0000BC0CE0101960E946A02019771F48981D3
:1007E00090E0F80195878487F801848595850F90BE
:1007F000DF91CF911F910F9108958FEF9FEFF1CF70
:10080000FC018485958597FD0BC09FB7F89482E025
:100810008093E9008091F2009FBF90E001960895D7
:100820009FB7F89482E08093E9008091F2009FBF27
:1008300090E0089581508F3008F047C0E82FF0E035
:10084000EC5DFB4F0C94480C41044504330439041F
:100850003D0465046504650448044E0452045604CE
:100860005C0465046004809180008F778093800031
:100870000895809180008F7DF9CF80918000877FDF
:10088000F5CF84B58F7784BD089584B58F7DFBCF78
:10089000809190008F7780939000089580919000D0
:1008A0008F7DF9CF80919000877FF5CF8091C00038
:1008B0008F778093C00008958091C0008F7DF9CF1D
:1008C0008091C200877F8093C2000895CF93DF9309
:1008D000282F30E0F901EC5CFE4F8491F901EB5ECA
:1008E000FE4FD491F901EA50FF4FC491CC23A1F0FF
:1008F00081110E941A04EC2FF0E0EE0FFF1FE85167
:10090000FF4FA591B491EC91ED2381E090E009F4C3
:1009100080E0DF91CF91089580E090E0FACF1F93BF
:10092000CF93DF93282F30E0F901EC5CFE4F8491E8
:10093000F901EB5EFE4FD491F901EA50FF4FC491EB
:10094000CC23A9F0162F81110E941A04EC2FF0E09D
:10095000EE0FFF1FE652FF4FA591B4918FB7F894A9
:10096000EC91111108C0D095DE23DC938FBFDF918D
:10097000CF911F910895DE2BF8CFCF93DF9390E0B6
:10098000FC01EB5EFE4F24918A509F4FFC01849145
:100990008823C9F090E0880F991FFC01E453FF4FB2
:1009A000A591B491FC01E652FF4FC591D49161111C
:1009B0000DC09FB7F8948C91209582238C938881E9
:1009C000282328839FBFDF91CF910895623051F48F
:1009D0009FB7F8943C91822F809583238C93E88174
:1009E0002E2BEFCF8FB7F894EC912E2B2C938FBF3B
:1009F000EACF3FB7F8948091DF029091E002A09196
:100A0000E102B091E20226B5A89B05C02F3F19F084
:100A10000196A11DB11D3FBFBA2FA92F982F88277E
:100A2000BC01CD01620F711D811D911D42E0660F59
:100A3000771F881F991F4A95D1F708958F929F922B
:100A4000AF92BF92CF92DF92EF92FF924B015C0187
:100A50000E94F9046B017C010E94F9046C197D0964
:100A60008E099F09683E734081059105A8F321E036
:100A7000821A9108A108B10888EEC80E83E0D81E3A
:100A8000E11CF11C81149104A104B10429F7FF9029
:100A9000EF90DF90CF90BF90AF909F908F90089590
:100AA0008F929F92AF92BF92CF92DF92EF92FF927E
:100AB0000F931F93CF93DF936C017B018A01809189
:100AC0000B01882309F45CC080913603882309F464
:100AD00057C08091E90280FF05C08091E0008260EC
:100AE0008093E000E801B12C8AEFA82E93E0892ED4
:100AF0002AE3922E209711F4BB20D9F10E94940290
:100B000081110AC0AA94AA20D9F161E070E080E0C6
:100B100090E00E941E05EECF8C171D0611F00CF020
:100B20008C2F9FB7F8948092E9002091E80025FD72
:100B300002C09FBFDFCF282F30E0C21BD30BF701CD
:100B4000815020F041914093F100FACFE20EF31E64
:100B5000BB2021F09092E800B12CEBCF8091E8000F
:100B600085FDE7CF9092E800BB24B394209709F36A
:100B7000F3CF5D9884E68093E802101611063CF0EE
:100B800081E090E0F6019383828310E000E0C801E9
:100B9000DF91CF911F910F91FF90EF90DF90CF9059
:100BA000BF90AF909F908F900895FC01019000201E
:100BB000E9F73197AF01481B590BBC0187E393E07C
:100BC0000C94500585E691E00C94D505CF93DF9306
:100BD0000E949403EC010E94E2058C0F9D1FDF919F
:100BE000CF9108958CEA90E00E94E60587E393E0B8
:100BF0000E94000418161906CCF787E393E00E94C0
:100C0000BE038A3039F064E670E080E090E00E9434
:100C10001E05ECCF0895CF93DF93D0E0C0E000979E
:100C200019F00E94D505EC010E94E2058C0F9D1F72
:100C3000DF91CF910895CF92DF92EF92FF920F93C1
:100C40001F93CF93DF93CDB7DEB7A1970FB6F8947C
:100C5000DEBF0FBECDBF282F30E050E040E019A22C
:100C60008E010F5D1F4F8AE0C82ED12CE12CF12C94
:100C7000CA01B901A70196010E94260C605DF80126
:100C800062938F01211531054105510589F7309790
:100C9000B9F0CF010E94D5058C010E94E205800FBA
:100CA000911FA1960FB6F894DEBF0FBECDBFDF91A6
:100CB000CF911F910F91FF90EF90DF90CF9008950B
:100CC00010E000E0EACF1F920F920FB60F921124AE
:100CD0008F939F938091E1009091E100937F909397
:100CE000E10083FF0FC01092E90091E09093EB00C8
:100CF0001092EC0092E39093ED001092360398E08E
:100D00009093F00082FF22C093E09093E9009091CD
:100D1000F200992319F09AE39093E8009091E80289
:100D2000992341F09091E80291509093E80291113B
:100D300001C05D9A90913503992341F0909135035C
:100D4000915090933503911101C0289A84FF18C0E7
:100D50008091E2008E7E81608093E2008091E100CC
:100D60008F7E8093E1008091E9028E7E8061809386
:100D7000E9029F918F910F900FBE0F901F901895D1
:100D800080FFF7CF8091E2008E7E80618093E20049
:100D90008091E1008E7E8093E1008091E9028E7E59
:100DA0008160E5CF1F920F920FB60F921124CF9260
:100DB000DF92EF92FF920F931F932F933F934F93E6
:100DC0005F936F937F938F939F93AF93BF93EF93B3
:100DD000FF93CF93DF93CDB7DEB76C97DEBFCDBF68
:100DE0001092E9008091E80083FF25C068E0CE0101
:100DF00045960E94710382EF8093E8008D8987FFFA
:100E000039C09091E80090FFFCCF982F907609F0C0
:100E100034C19E894F89588D2F89F88C911131C02A
:100E2000803861F58091EA028093F1001092F10020
:100E30008EEF8093E8006C960FB6F894DEBF0FBE7D
:100E4000CDBFDF91CF91FF91EF91BF91AF919F9176
:100E50008F917F916F915F914F913F912F911F9152
:100E60000F91FF90EF90DF90CF900F900FBE0F90FB
:100E70001F9018959EEF9093E800C7CF1092F10055
:100E8000D5CF913059F48111D3CF4130510581F63E
:100E90008091EA028D7F8093EA02CACF933049F4B1
:100EA0008111C6CF4130510519F68091EA02826066
:100EB000F2CF953041F48091E80080FFFCCF2068AC
:100EC0002093E300B5CF963009F0A9C00B8D1C8D9F
:100ED00022E01092E9001092E6021092E502F2126E
:100EE0002EC01092E4021092E3020E9440031F827F
:100EF00099E09983FA8291E09E8390EA98879AEF2D
:100F000099872091E5023091E602275F3F4F3C83AD
:100F10002B838D831092E9001092E6021092E50275
:100F20001093E4020093E30249E050E0BE016F5FDA
:100F30007F4F80E00E941A030E94400379CF1093F4
:100F4000E4020093E3020E94A502DC0112960D91D7
:100F50001C910115110509F451C1D801ED91FC91C5
:100F60000480F581E02DBE016B5E7F4FC8010995BD
:100F7000009709F03EC1F80100851185EACFF3E042
:100F8000FF120EC08F89882309F440C0823061F4BB
:100F900040E862E183EB91E00E94E702811148CFD3
:100FA00081E28093EB0047CF813029F440E868E08C
:100FB0008AEA91E0F1CF833099F70E94A502DC0123
:100FC0001296ED90FC908E010F5F1F4F6801E114A7
:100FD000F10479F0D701ED91FC910680F781E02DC5
:100FE000B801C7010995080F111DF701E084F184CC
:100FF000EECFD8011C92F60101900020E9F731975D
:10100000BF016C197D0940E0C601C6CF64E971E0FB
:10101000FB01449150E080E80E941A0309CF973009
:1010200009F4BECF983021F481E08093F10000CF25
:10103000993009F0FDCE837009F0B2CFEFE1F1E015
:1010400081E031E096E32191222371F08093E90061
:101050003093EB00DF0111972C912093EC009093DB
:10106000ED008F5F873079F78EE78093EA0010926A
:10107000EA008F8980933603DBCE8B8D9C8D109296
:10108000E9001092E6021092E5029093E402809348
:10109000E302898D811192C08E899D89913A49F42C
:1010A000813209F07DCF47E050E064E071E080E0FC
:1010B000B3CF913209F074CF833269F48F89988D60
:1010C000B0E0A0E08093000190930101A0930201A1
:1010D000B0930301ADCE803269F48091E80082FFC5
:1010E000FCCF67E084E091E00E9471038BEF809376
:1010F000E8009ECE823209F09BCE8F8980930B014F
:10110000EEEFFFE7859194918B3F9C4D51F1E0E02C
:10111000F8E08091040190910501A0910601B09141
:101120000701803B9440A105B105F1F480910B01CA
:1011300080FD1AC0EE3F8AE0F80789F587E797E758
:1011400091838083809160008093E70288E19BE037
:101150000FB6F894A895809360000FBE909360003E
:1011600067CEEEEFFAE0D5CF808191818737974740
:1011700009F05ECEA8958091600088618093600040
:101180008091E70280936000EE3F2AE0F20789F049
:101190008091FE0A9091FF0A9183808349CE8081DD
:1011A00091818737980751F29093FF0A8093FE0A46
:1011B000C5CF1092FF0A1092FE0A3ACE0E94A502F5
:1011C000DC0112960D911C910115110509F4E8CE70
:1011D000D801ED91FC910190F081E02DBE016B5E94
:1011E0007F4FC8010995811123CEF8010085118533
:1011F000EBCF181619060CF41BCED2CEF1E0FF127D
:10120000BECE68E971E004CF1F920F920FB60F9225
:1012100011242F933F938F939F93AF93BF9380910C
:10122000DB029091DC02A091DD02B091DE023091F0
:10123000DA0223E0230F2D3758F50196A11DB11DC9
:101240002093DA028093DB029093DC02A093DD020C
:10125000B093DE028091DF029091E002A091E10262
:10126000B091E2020196A11DB11D8093DF0290931F
:10127000E002A093E102B093E202BF91AF919F918F
:101280008F913F912F910F900FBE0F901F90189547
:1012900026E8230F0296A11DB11DD2CFCF93DF9375
:1012A00000D000D0CDB7DEB7789484B5826084BD1D
:1012B00084B5816084BD85B5826085BD85B581605A
:1012C00085BD80916E00816080936E0010928100D8
:1012D0008091810082608093810080918100816093
:1012E0008093810080918000816080938000809154
:1012F0009100826080939100809191008160809341
:101300009100809190008160809390008091C10055
:1013100084608093C1008091C10082608093C1008D
:101320008091C10081608093C1008091C300816081
:101330008093C3008091C00082608093C000809140
:10134000C20081608093C20080917A0084608093A3
:101350007A0080917A00826080937A0080917A008E
:10136000816080937A0080917A00806880937A000F
:10137000109236031092EA021092E9028091D7008F
:1013800081608093D70080EA8093D80089B580611E
:1013900089BD89B5826089BD09B400FEFDCF61E0D9
:1013A00070E080E090E00E941E058091D8008F7C64
:1013B00080618093D8008091E000807F8093E0007E
:1013C0008091E1008E7E8093E1008DE08093E200C9
:1013D000559A209A8FEF9FEF909344038093430395
:1013E00020910B0129836AE070E080E090E00E9488
:1013F0001E0589818823A1F381EE91E00E94940368
:1014000087ED91E00E94940386EC91E00E94E6054E
:1014100061E080E00E94BD0461E081E00E94BD04C3
:1014200061E088E00E94BD0461E087E00E94BD04A5
:1014300061E089E00E94BD0460E082E00E94BD049A
:1014400062E083E00E94BD0461E086E00E94BD048A
:1014500061E084E00E94BD0461E085E00E94BD047B
:1014600062E085E10E94BD0462E084E10E94BD0467
:1014700062E083E10E94BD0462E082E10E94BD045B
:1014800062E08FE00E94BD0462E08EE00E94BD0435
:1014900062E080E10E94BD0462E08AE00E94BD0437
:1014A0006BE5262E61E0362E0CEE12E07BE8472E2F
:1014B00071E0572E51E7652E51E0752E10922803EA
:1014C00084E594E00E94E6058BE294E00E94E60544
:1014D000EBE5F1E0FA83E98388E194E00E9494036C
:1014E000E981FA8181919191FA83E9830E940B0647
:1014F00089819A818556914079F70E94E20587E0BB
:1015000094E00E94E60586EF93E00E94E60534E54C
:10151000E32E31E0F32E46E4C42E41E0D42E5601F2
:10152000FA82E982E981FA819190FA83E983F8E00D
:101530009F1204C060E087E00E948F0460E0892D64
:101540000E948F0484EE93E00E949403F501819140
:1015500091915F010E940B06F6E09F1619F029E0B9
:10156000921204C08FEA93E00E94E60589EF890D8C
:10157000823048F489E893E00E94E6058CE593E028
:101580000E94E60502C08230C9F30E94F2058981FB
:101590009A812816390631F688E593E00E94E6051F
:1015A000F701B1907F01F8E0BF1204C061E087E06D
:1015B0000E948F0461E08B2D0E948F0485E493E0EC
:1015C0000E949403F601819191916F010E940B0694
:1015D00089EF8B0D833020F485E193E00E94E605CE
:1015E0000E94F20589819A81E816F906C9F60E94DF
:1015F000E20585E093E00E94E60585EF92E00E9417
:10160000E605E12CF12CEF2DF0E0FA83E983E55CAF
:10161000FE4FC0808C2D0E946604D82E8DE691E08E
:10162000DD2011F088E691E09F938F9389819A8164
:10163000880F991F8B5D9E4FFC0181818F93808164
:101640008F937F926F921F92FCE3FF931F930F93F0
:101650000E944E0C8CEE92E00E940B0688ED92E008
:101660000E94E6050E94F2058C2D0E94660480937C
:10167000EB0287EC92E00E9494032091EB02298315
:101680000FB6F894DEBF0FBECDBF8DE691E02223EA
:1016900011F088E691E00E940B069981D9120DC0E5
:1016A0008AEA92E00E94E605E110B4C081EA92E085
:1016B0000E94E605FA94EE24E394F394EBE0FE1224
:1016C000A2CF0E94E20583E792E00E94E60585E44E
:1016D00092E00E94E60585E291E09C838B8397E38C
:1016E000892E91E0992EEDE3F1E0FA83E983D12C84
:1016F000E981FA81C190FA83E98361E08C2D0E942F
:10170000BD0464E670E080E090E00E941E0560E0A9
:101710008C2D0E948F0462E370E080E090E00E94D4
:101720001E058DE3A82E81E0B82EF12CE12CF501E9
:1017300081915F01C81651F10E9466048093EB020B
:10174000811124C0F701EB5DFE4F85818F93848169
:101750008F93EB81FC8185818F9384818F935F923E
:101760004F921F92FCE3FF931F930F930E944E0C26
:101770008BE292E00E9494038CEE92E00E940B06B2
:10178000D3940FB6F894DEBF0FBECDBF92E0E90E42
:10179000F11CE2E1EE16F10451F662E08C2D0E949C
:1017A000BD0462E370E080E090E00E941E058B8142
:1017B0009C8102969C838B838816990609F098CFAA
:1017C00060E082E00E94BD04DD2061F08CE192E0E7
:1017D0000E9494038D2D0E941B06809128038D0D7D
:1017E000809328030E94E2058DEF91E00E9494030C
:1017F000809128030E941B0682EF91E00E94E6057B
:101800000E94F20580E090E0892B09F457CE0E94F7
:10181000000050CE809128038F5F80932803E12C35
:101820004CCFE7E3F3E01382128288EE93E0A0E06E
:10183000B0E084839583A683B78380E191E09183B0
:1018400080838FEF9FEF958784870895A1E21A2EFA
:10185000AA1BBB1BFD010DC0AA1FBB1FEE1FFF1F54
:10186000A217B307E407F50720F0A21BB30BE40BA4
:10187000F50B661F771F881F991F1A9469F76095EB
:101880007095809590959B01AC01BD01CF010895A5
:10189000EE0FFF1F0590F491E02D0994AEE0B0E04B
:1018A000E4E5FCE00C940A0F0D891E898F89988D60
:1018B00026E02C831A83098397FF02C080E090E81A
:1018C00001979E838D83AE01455E5F4F698D7A8D52
:1018D000CE0101960E947E0C4D815E8157FD0AC0AB
:1018E0002F813885421753070CF49A01020F131FFA
:1018F000F80110822E96E4E00C94260FABE0B0E0E5
:10190000E4E8FCE00C94FC0E7C013B018A01FC0144
:1019100017821682838181FFC8C1CE0101965C01C6
:10192000F7019381F30193FD859193FF81913F012D
:10193000882309F453C1853239F493FD859193FFCF
:1019400081913F01853229F4B70190E00E946E0E2B
:10195000E7CF912C212C312CFFE1F31538F08B329D
:1019600011F190F4803209F1833229F137FC3CC047
:1019700020ED280F2A3050F536FE20C08AE0989ED0
:10198000200D1124922E06C08D3291F0803371F714
:10199000689430F8F30193FD859193FF81913F01A5
:1019A0008111DACF21C0689431F8689432F8F2CF0F
:1019B000689433F8EFCF689434F8ECCFEAE02E9EC9
:1019C000200D1124222E689435F8E4CF8E3229F4AC
:1019D00036FC04C1689436F8DDCF8C3619F468946F
:1019E00037F8D8CF8836B1F2982F9F7D9554933031
:1019F000E0F08336A1F18337C1F1833509F063C08C
:101A00002801F2E04F0E511CF801C080D180692DF1
:101A100070E036FC02C06FEF7FEFC6010E94580EE7
:101A20004C01689437F882010AC00C5F1F4FFFE336
:101A3000F98388248394912C6501E89437F833FE68
:101A40002DC0522C8114910471F5552009F468CFF2
:101A5000B70180E290E00E946E0E5A94F6CFF80132
:101A6000808189830E5F1F4FE4CF2801F2E04F0E83
:101A7000511CF801C080D180692D70E036FC02C095
:101A80006FEF7FEFC6010E94630E4C018201D5CF3C
:101A9000B70180E290E00E946E0E2A942814190487
:101AA00009F0B0F7CECFF60137FC859137FE819172
:101AB0006F01B70190E00E946E0E51105A94F1E050
:101AC0008F1A9108BFCF843619F0893609F077C094
:101AD000F80137FE6BC060817181828193810C5F58
:101AE0001F4FF32DFF763F2E97FF09C090958095ED
:101AF000709561957F4F8F4F9F4F689437F82AE01C
:101B000030E0A5010E949E0EC82ECA188C2C432CD2
:101B100036FE0CC0E89440F8C91440F434FE05C009
:101B200032FC03C0F32DFE7E4F2E892C44FE95C05F
:101B3000FE01EC0DF11D8081803309F087C0242D5A
:101B4000297E422E842D8870582E43FC95C040FE7D
:101B50008FC09C2C821418F42C0C922C981844FEE4
:101B600091C0B70180E390E00E946E0E42FE09C072
:101B700088E790E041FE02C088E590E0B7010E944E
:101B80006E0EC91408F48AC0CA94D12C9FEFC91AEA
:101B9000D90ACA0CDB1CF60182916F01B70190E0F3
:101BA0000E946E0EAC14BD04B1F74FCF60817181FD
:101BB000072E000C880B990B0E5F1F4F92CFD32C72
:101BC000E894D4F82AE030E0853739F1232D297FD5
:101BD000D22E8F3601F148F48835A9F0F7018681BD
:101BE00097812B96E2E10C94180F803749F08837E3
:101BF000A9F7D4FE02C06894D2F820E130E00DC00D
:101C00006894D4F8F6CF34FE03C0822F8660D82EB5
:101C100020E132E002C028E030E0F801D7FE0FC03A
:101C200060817181828193810C5F1F4FA5010E94A9
:101C30009E0EC82ECA183D2CE89437F867CF6081F5
:101C4000718190E080E00E5F1F4FF0CF42FC02C038
:101C5000839478CF8394839475CF842D867809F408
:101C600071CFF6CFB70180E290E00E946E0E8394B0
:101C70008214C0F3512C73CF522C5818821408F4DC
:101C80006ECFF8CF842D867809F47BCF8BE241FEAE
:101C900080E247FC8DE2B70190E071CFB70180E3AD
:101CA00090E00E946E0E9A946CCF8FEF9FEF99CFC9
:101CB000FC010590615070400110D8F78095909517
:101CC0008E0F9F1F0895FC0161507040019001101C
:101CD000D8F7809590958E0F9F1F08950F931F93AF
:101CE000CF93DF93182F092FEB018B8181FD09C062
:101CF0001FEF0FEF812F902FDF91CF911F910F9149
:101D0000089582FF14C02E813F818C819D81281708
:101D100039073CF4E881F981CF01019699838883E2
:101D200010838E819F8101969F838E83E3CFE88508
:101D3000F985812F0995892BA1F3DACFFA01AA271A
:101D4000283051F1203181F1E8946F936E7F6E5FFE
:101D50007F4F8F4F9F4FAF4FB1E03ED0B4E03CD0AC
:101D6000670F781F891F9A1FA11D680F791F8A1F8F
:101D7000911DA11D6A0F711D811D911DA11D20D0F6
:101D800009F468943F912AE0269F11243019305DB0
:101D90003193DEF6CF010895462F4770405D4193A1
:101DA000B3E00FD0C9F7F6CF462F4F70405D4A33EE
:101DB00018F0495D31FD4052419302D0A9F7EACFB6
:101DC000B4E0A6959795879577956795BA95C9F7E5
:101DD00000976105710508959B01AC010A2E0694D8
:101DE0005795479537952795BA95C9F7620F731F91
:101DF000841F951FA01D08952F923F924F925F92CE
:101E00006F927F928F929F92AF92BF92CF92DF920A
:101E1000EF92FF920F931F93CF93DF93CDB7DEB76F
:101E2000CA1BDB0B0FB6F894DEBF0FBECDBF099403
:101E30002A88398848885F846E847D848C849B845A
:101E4000AA84B984C884DF80EE80FD800C811B8168
:101E5000AA81B981CE0FD11D0FB6F894DEBF0FBE97
:0A1E6000CDBFED010895F894FFCF07
:101E6A00FFFFFFFF00E1000000000000000000008B
:101E7A007E035005BA03AF030004BE03DC0300C1AE
:101E8A0080810000009301AB01CA01D501DF01E99D
:101E9A0001F301FD01070211021B020002031514DE
:101EAA0013120F0E100A25023D02560270028C020E
:101EBA0094029D0201080709040506A802B202BF9E
:101ECA0002C902D7020D0A0048494748004C4F5739
:101EDA00002B2043757272656E742076616C75658D
:101EEA00206F6E2025733A202573002573202D203C
:101EFA0025730053455249414C5F52585F50494E31
:101F0A003A44303A444232355F33005345524941EC
:101F1A004C5F4453525F4443445F50494E3A443203
:101F2A003A444232355F362D38005354524F4245B7
:101F3A005F50494E0044415441305F50494E00447D
:101F4A00415441315F50494E0044415441325F503F
:101F5A00494E0044415441335F50494E0044415474
:101F6A0041345F50494E0044415441355F50494E17
:101F7A000044415441365F50494E00444154413770
:101F8A005F50494E0053455249414C5F54585F5087
:101F9A00494E3A44313A444232355F32005345524F
:101FAA0049414C5F5245565F4F55545F50494E3A2E
:101FBA0044383A4A360053455249414C5F445452D8
:101FCA005F50494E3A44373A444232355F32300024
:101FDA0053455249414C5F5254535F50494E3A441B
:101FEA00393A4A353A444232355F340041434B5F0D
:101FFA0050494E00425553595F50494E0053454C83
:10200A004543545F50494E005253542F52657365ED
:10201A0074004146442F4175746F666565640045D6
:10202A0052522F4572726F7200532E494E2F5365CA
:0A203A006C656374496E00313800D4
:00000001FF
